:060000000A128A1100291A
:10000800F000030EF1000B1912200B182720031320
:100018008312710E8300F00E700E09000313831211
:10002800D93081000B1119200800081088102118F8
:10003800222824088700881421140800250887002E
:1000480008142110080003138312061C2F20861C95
:1000580032200B100800850AA00A08008503A003B7
:0200680008008E
:100200001E210A2111213821402103138312492183
:1002100051210729031383160F140F178F160F127E
:100220000800031383168112811101158114011432
:1002300003138312D93081000B11080003178316B2
:100240008801890103138316061486140810881088
:1002500085018701811315149514031383128501F9
:10026000860187018801A001A101A201A401080063
:10027000031383128B178B150B108B160B110800B1
:1002800003138316161496140313831206080B1017
:1002900008000F302005A200F0302005A300A30EB7
:1002A000080022080022A40023080022A50008005C
:100400008A018A140F3982073F3406345B344F3433
:1004100066346D347D3407347F346F3477347C3404
:0804200039345E347934713483
:04400E00D420FF3F7C
:00000001FF
